:020000040800F2
:1000000000800020250F0008750F0008113B000834
:10001000750F0008750F0008750F0008000000003C
:10002000000000000000000000000000750F000844
:10003000750F000800000000750F0008193B00084C
:10004000750F0008750F0008750F0008750F000880
:10005000750F0008750F0008750F0008750F000870
:10006000750F0008750F0008750F0008750F000860
:10007000750F0008750F0008750F0008750F000850
:10008000750F0008000000004D3F0008750F0008C4
:10009000750F0008750F0008750F0008750F000830
:1000A000713F0008593F0008750F0008750F0008E0
:1000B000750F0008750F0008750F0008750F000810
:1000C000750F0008750F0008750F0008750F000800
:1000D000750F0008750F0008750F0008F13900084A
:1000E000750F0008750F0008750F0008750F0008E0
:1000F000750F0008750F0008750F0008000000005C
:1001000000000000750F000800000000750F0008D7
:10011000750F000800000000750F0008750F00083B
:10012000750F0008750F0008750F0008750F00089F
:10013000750F00080000000000000000750F0008A7
:10014000750F0008750F0008000000000000000097
:10015000000000000000000000000000000000009F
:10016000000000000000000000000000750F000803
:10017000750F0008000000000000000000000000F3
:1001800000000000750F00080000000000000000E3
:10019000000000000000000000000000000000005F
:1001A0000000000000000000750F0008750F000837
:1001B000750F0008750F0008750F0008000000009B
:1001C00000000000750F00080000000000000000A3
:0801D000750F0008750F00080F
:1001E00010B5054C237833B9044B13B10448AFF371
:1001F00000800123237010BDC40600200000000011
:100200002CC8000808B5034B1BB103490348AFF3E2
:10021000008008BD00000000C80600202CC80008AF
:1002200001F0FF01102A2BDB10F0070F08D010F8A7
:10023000013B013A8B422DD010F0070F42B3F6D1AB
:10024000F0B441EA012141EA014122F007047FF0C4
:1002500000070023F0E80256083C85EA010586EA1B
:10026000010685FA47F5A3FA87F586FA47F6A5FA57
:1002700087F68EB9EED1F0BC01F0FF0102F0070263
:1002800032B110F8013B013A83EA010313B1F8D10E
:100290000020704701387047002D06BF35460338EF
:1002A000073815F0010F07D1013015F4807F02BF28
:1002B000013015F4C03F0130F0BC0138704700BF79
:1002C000034613F8012B002AFBD1181A0138704796
:1002D00081F0004102E000BF83F0004330B54FEAF7
:1002E00041044FEA430594EA050F08BF90EA020F64
:1002F0001FBF54EA000C55EA020C7FEA645C7FEAF7
:10030000655C00F0E2804FEA5454D4EB5555B8BF19
:100310006D420CDD2C4480EA020281EA030382EA8A
:10032000000083EA010180EA020281EA0303362D1C
:1003300088BF30BD11F0004F4FEA01314FF4801CEF
:100340004CEA113102D0404261EB410113F0004F01
:100350004FEA03334CEA133302D0524263EB4303B8
:1003600094EA050F00F0A780A4F10104D5F1200E56
:100370000DDB02FA0EFC22FA05F2801841F10001B1
:1003800003FA0EF2801843FA05F359410EE0A5F185
:1003900020050EF1200E012A03FA0EFC28BF4CF0B6
:1003A000020C43FA05F3C01851EBE37101F000456C
:1003B00007D54FF0000EDCF1000C7EEB00006EEB79
:1003C0000101B1F5801F1BD3B1F5001F0CD3490803
:1003D0005FEA30004FEA3C0C04F101044FEA44525A
:1003E00012F5800F80F09A80BCF1004F08BF5FEAE1
:1003F000500C50F1000041EB045141EA050130BDC1
:100400005FEA4C0C404141EB0101013C28BFB1F5D2
:10041000801FE9D291F0000F04BF01460020B1FA1D
:1004200081F308BF2033A3F10B03B3F120020CDAF0
:100430000C3208DD02F1140CC2F10C0201FA0CF0CE
:1004400021FA02F10CE002F11402D8BFC2F1200C33
:1004500001FA02F120FA0CFCDCBF41EA0C019040E9
:10046000E41AA2BF01EB0451294330BD6FEA040432
:100470001F3C1CDA0C340EDC04F11404C4F120021D
:1004800020FA04F001FA02F340EA030021FA04F32F
:1004900045EA030130BDC4F10C04C4F1200220FA86
:1004A00002F001FA04F340EA0300294630BD21FAC4
:1004B00004F0294630BD94F0000F83F4801306BF8A
:1004C00081F480110134013D4EE77FEA645C18BF7E
:1004D0007FEA655C29D094EA050F08BF90EA020F15
:1004E00005D054EA000C04BF1946104630BD91EA0D
:1004F000030F1EBF0021002030BD5FEA545C05D110
:100500004000494128BF41F0004130BD14F580044E
:100510003CBF01F5801130BD01F0004545F0FE41C2
:1005200041F470014FF0000030BD7FEA645C1ABFF7
:10053000194610467FEA655C1CBF0B46024650EA2E
:10054000013406BF52EA033591EA030F41F400215A
:1005500030BD00BF90F0000F04BF0021704730B5E0
:100560004FF4806404F132044FF000054FF00001B5
:1005700050E700BF90F0000F04BF0021704730B576
:100580004FF4806404F1320410F0004548BF40424B
:100590004FF000013EE700BF42004FEAE2014FEAA0
:1005A00031014FEA02701FBF12F07F4393F07F4F7B
:1005B00081F06051704732F07F4208BF704793F07E
:1005C0007F4F04BF41F40021704730B54FF4607491
:1005D00001F0004521F000411CE700BF50EA010294
:1005E00008BF704730B54FF000050AE050EA01023D
:1005F00008BF704730B511F0004502D5404261EBAD
:1006000041014FF4806404F132045FEA915C3FF4ED
:10061000D8AE4FF003025FEADC0C18BF03325FEA8A
:10062000DC0C18BF033202EBDC02C2F1200300FA3B
:1006300003FC20FA02F001FA03FE40EA0E0021FA60
:1006400002F11444BDE600BF70B54FF0FF0C4CF44E
:10065000E06C1CEA11541DBF1CEA135594EA0C0F00
:1006600095EA0C0F00F0DEF82C4481EA030621EA3B
:100670004C5123EA4C5350EA013518BF52EA033576
:1006800041F4801143F4801338D0A0FB02CE4FF028
:100690000005E1FB02E506F00042E0FB03E54FF058
:1006A0000006E1FB03569CF0000F18BF4EF0010E50
:1006B000A4F1FF04B6F5007F64F5407404D25FEA4C
:1006C0004E0E6D4146EB060642EAC62141EA5551FF
:1006D0004FEAC52040EA5E504FEACE2EB4F1FD0C41
:1006E00088BFBCF5E06F1ED8BEF1004F08BF5FEABF
:1006F000500E50F1000041EB045170BD06F0004671
:1007000046EA010140EA020081EA0301B4EB5C041D
:10071000C2BFD4EB0C0541EA045170BD41F4801115
:100720004FF0000E013C00F3AB8014F1360FDEBF3A
:10073000002001F0004170BDC4F10004203C35DA16
:100740000C341BDC04F11404C4F1200500FA05F399
:1007500020FA04F001FA05F240EA020001F000423A
:1007600021F0004110EBD37021FA04F642EB0601B0
:100770005EEA430E08BF20EAD37070BDC4F10C04DA
:10078000C4F1200500FA04F320FA05F001FA04F29E
:1007900040EA020001F0004110EBD37041F100018A
:1007A0005EEA430E08BF20EAD37070BDC4F1200595
:1007B00000FA05F24EEA020E20FA04F301FA05F2FD
:1007C00043EA020321FA04F001F0004121FA04F2A5
:1007D00020EA020000EBD3705EEA430E08BF20EA75
:1007E000D37070BD94F0000F0FD101F000464000AF
:1007F00041EB010111F4801F08BF013CF7D041EA31
:10080000060195F0000F18BF704703F00046520034
:1008100043EB030313F4801F08BF013DF7D043EA05
:100820000603704794EA0C0F0CEA135518BF95EABB
:100830000C0F0CD050EA410618BF52EA4306D1D142
:1008400081EA030101F000414FF0000070BD50EA61
:10085000410606BF1046194652EA430619D094EAEB
:100860000C0F02D150EA013613D195EA0C0F05D1D5
:1008700052EA03361CBF104619460AD181EA030129
:1008800001F0004141F0FE4141F470014FF00000E1
:1008900070BD41F0FE4141F4780170BD70B54FF07C
:1008A000FF0C4CF4E06C1CEA11541DBF1CEA1355FC
:1008B00094EA0C0F95EA0C0F00F0A7F8A4EB0504DE
:1008C00081EA030E52EA03354FEA013100F08880D5
:1008D0004FEA03334FF0805545EA131343EA12639E
:1008E0004FEA022245EA111545EA10654FEA002653
:1008F0000EF000419D4208BF964244F1FD0404F50C
:10090000407402D25B084FEA3202B61A65EB030567
:100910005B084FEA32024FF480104FF4002CB6EB24
:10092000020E75EB030E22BFB61A754640EA0C00A4
:100930005B084FEA3202B6EB020E75EB030E22BFE4
:10094000B61A754640EA5C005B084FEA3202B6EB25
:10095000020E75EB030E22BFB61A754640EA9C00E4
:100960005B084FEA3202B6EB020E75EB030E22BFB4
:10097000B61A754640EADC0055EA060E18D04FEA72
:10098000051545EA16754FEA06164FEAC30343EA12
:1009900052734FEAC2025FEA1C1CC0D111F4801FDF
:1009A0000BD141EA00014FF000004FF0004CB6E7D8
:1009B00011F4801F04BF01430020B4F1FD0C88BF77
:1009C000BCF5E06F3FF6AFAEB5EB030C04BFB6EB82
:1009D000020C5FEA500C50F1000041EB045170BD75
:1009E0000EF0004E4EEA113114EB5C04C2BFD4EBA2
:1009F0000C0541EA045170BD41F480114FF0000E26
:100A0000013C90E645EA060E8DE60CEA135594EAA1
:100A10000C0F08BF95EA0C0F3FF43BAF94EA0C0FA4
:100A20000AD150EA01347FF434AF95EA0C0F7FF419
:100A300025AF104619462CE795EA0C0F06D152EA6D
:100A400003353FF4FDAE1046194622E750EA410651
:100A500018BF52EA43067FF4C5AE50EA41047FF462
:100A60000DAF52EA43057FF4EBAE12E74FF0FF3CC7
:100A700006E000BF4FF0010C02E000BF4FF0010C98
:100A80004DF804CD4FEA410C7FEA6C5C4FEA430C11
:100A900018BF7FEA6C5C1BD001B050EA410C0CBF60
:100AA00052EA430C91EA030F02BF90EA020F0020C2
:100AB000704710F1000F91EA030F58BF994208BF29
:100AC00090422CBFD8176FEAE37040F001007047E6
:100AD0004FEA410C7FEA6C5C02D150EA013C07D13D
:100AE0004FEA430C7FEA6C5CD6D152EA033CD3D088
:100AF0005DF8040B704700BF8446104662468C4682
:100B00001946634600E000BF01B5FFF7B7FF0028B4
:100B100048BF10F1000F01BD4DF808EDFFF7F4FFDD
:100B20000CBF012000205DF808FB00BF4DF808ED68
:100B3000FFF7EAFF34BF012000205DF808FB00BF8B
:100B40004DF808EDFFF7E0FF94BF012000205DF8AD
:100B500008FB00BF4DF808EDFFF7CEFF94BF012062
:100B600000205DF808FB00BF4DF808EDFFF7C4FF5B
:100B700034BF012000205DF808FB00BF4FEA410CA4
:100B80007FEA6C5C02D150EA013C0AD14FEA430C87
:100B90007FEA6C5C02D152EA033C02D14FF00000C4
:100BA00070474FF0010070474FEA410212F5001202
:100BB00015D211D56FF47873B3EB625212D94FEAA4
:100BC000C12343F0004343EA505311F0004F23FA8E
:100BD00002F018BF404270474FF00000704750EAE3
:100BE000013005D111F0004008BF6FF000407047A0
:100BF0004FF00000704700BF53B94AB9002908BF41
:100C000000281CBF4FF0FF314FF0FF3000F088B9D3
:100C1000ADF1080C6DE904CE00F006F8DDF804E053
:100C2000DDE9022304B070472DE9F047089D8E46A8
:100C300004468846002B4AD18A42174662D9B2FA46
:100C400082F64EB1C6F1200301FA06F820FA03F34A
:100C5000B74043EA0808B4404FEA174E1FFA87FC32
:100C6000B8FBFEF1230C0EFB118843EA084301FB9D
:100C70000CF29A4209D9FB1801F1FF3080F0EA80AA
:100C80009A4240F2E78002393B449A1AA3B2B2FB7F
:100C9000FEF00EFB102243EA024300FB0CFC9C45D5
:100CA00009D9FB1800F1FF3280F0D6809C4540F254
:100CB000D3803B44023840EA0140A3EB0C030021FF
:100CC0001DB1F3400022C5E90032BDE8F0878B4238
:100CD00005D90DB1C5E9000100210846F5E7B3FAD1
:100CE00083F1002946D1734502D3824200F2058187
:100CF000841A6EEB030201209046002DE5D0C5E971
:100D00000048E2E7002A00F09080B2FA82F6002E56
:100D100040F0A4808A1A030C4FEA174E80B2BCB28E
:100D20000121B2FBFEFC0EFB1C2243EA024304FB42
:100D30000CF29A4207D9FB180CF1FF3802D29A4202
:100D400000F2E080C4469B1AB3FBFEF20EFB1233A6
:100D500040EA034302FB04F49C4207D9FB1802F16A
:100D6000FF3002D29C4200F2CA8002461B1B42EABC
:100D70000C40A5E7C1F120068B4022FA06F71F437D
:100D80000EFA01F420FA06F32EFA06FE4FEA17498E
:100D9000234300FA01F81FFA87FCBEFBF9F01C0C94
:100DA00009FB10EE44EA0E4400FB0CFEA64502FAD5
:100DB00001F209D93C1900F1FF3A80F09C80A64568
:100DC00040F2998002383C44A4EB0E041FFA83FEE3
:100DD000B4FBF9F309FB13444EEA044403FB0CFC97
:100DE000A44508D93C1903F1FF3E80F08280A44558
:100DF0007FD9023B3C4443EA0040A4EB0C04A0FB37
:100E000002EC64457346E14662D35FD05DB1B8EB56
:100E1000030264EB090404FA06F622FA01F31E4306
:100E2000CC40C5E9006400214FE7B1FBF2FC010CA6
:100E300041EA0E4180B240EA01423B4638463C4618
:100E4000B846BE462026B1FBF7F1A2EB080241EA04
:100E50000C4166E7014618E710462CE7C6F1200270
:100E60002EFA02F3B740B14020FA02F24FEA174ED1
:100E70000A43B3FBFEF8BCB20EFB1833110C41EA77
:100E8000034108FB04F9B04089454FEA104380B2A2
:100E90003ED9791808F1FF3C01D289451FD8A1EB52
:100EA0000901B1FBFEF909FB04F80EFB191192B21E
:100EB00042EA0142424529D2BA1809F1FF31C4D2AF
:100EC0004245C2D2A9F102013A44BEE7F0459DD2A3
:100ED000BEEB02036CEB070C0138E14696E7A7EB8B
:100EE00009094944A8F1020CB1FBFEF909FB04F819
:100EF000DBE773467FE7504666E70846FDE63B447E
:100F0000023A33E7ACF1020C3B441CE749469CE74C
:100F1000A1EB0901C446B1FBFEF909FB04F8C4E7E3
:100F2000704700BF0D48854604F040F90C480D4954
:100F30000D4A002302E0D458C4500433C4188C4234
:100F4000F9D30A4A0A4C002301E013600432A2429A
:100F5000FBD309F0F7FB00F0E5FEFEE70080002080
:100F600000000020C40600207CD90008C406002030
:100F7000DC1D0020FEE7000070B50446C36C40692C
:100F800098470023656DA4F8643084F86030606988
:100F900004F11C012B460422BDE87040184700BF35
:100FA00010B40B780A7991F802C01E4CDB0143EAB9
:100FB00002134A7843EA0223CA7843EA8C3343EAAD
:100FC0004253DAB242F0050223F07041A25C82EA99
:100FD0001122D2B2A25C82EA1142D2B2A25C124CBD
:100FE00082EA1162A25C43EA027343F005030362E2
:100FF00072B6836C4BB162B690F8243013B90223F9
:1010000080F824305DF8044B704700F12001032381
:1010100080F82430816462B60422836D5DF8044B4D
:101020004069184758C8000848C8000830B44B0148
:1010300090F860C090F863401D4D43EA011343EA05
:1010400002330CF0010143EA811343EAC11304F0B7
:101050000F0443EA0423DAB2164C42F0060243F0CE
:101060000601A25C82EA1322D2B2A25C82EA134297
:10107000D2B2A25C82EA1363EB5C41EA03730362BF
:1010800072B6836C43B162B690F8243013B9022370
:1010900080F8243030BC704700F12001032380F831
:1010A0002430816462B60422836D406930BC1847E5
:1010B00048C8000858C800080A2A09D090F83630F5
:1010C000012B1DD990F83E30012B0DD9002070471F
:1010D00090F82E30012BF9D8836A012204330B607B
:1010E00080F82E2001207047836B4FF0010C00F137
:1010F0003802043380F83EC002640B600120704760
:10110000036B4FF0010C00F13002043380F836C05D
:1011100002640B60F2E700BF844690F86400022886
:1011200001D00220704743EA021041F8040C9CF8F9
:101130006C00012804D14FF6CA608852023292B284
:101140000A2B05D19CF8100048B300208CF8100041
:1011500051F8040C70B5344DC4B204322E5DC0F3A6
:1011600007247440A1F1040E2E5DC0F307447440BF
:1011700092B22C5DC0F303656C402C4D2C5D40EAAF
:10118000047041F8040C72B6DCF84810B9B162B6CC
:10119000092B06D00A2B2AD07BB3002070BD01207A
:1011A0007047DCF8403019688E4514BF03200020DA
:1011B000DCF84410A1B3022199719A8070BD092B0B
:1011C00029D00A2B4FF003030BBF8CF82E308CF87C
:1011D00024300CF128030CF12003CCF8483062B61F
:1011E000DCF85830DCF8140071469847D5E79CF8D5
:1011F0002E30012B09D0032070BD9CF82430002B29
:10120000F9D102238CF82430C7E702238CF82E3062
:10121000ACF82C20C1E7DCF8403003219971DCE701
:10122000CCF84430C7E700BF58C8000848C80008D9
:1012300010B590F82430032B044613D0826C0021A3
:10124000917190F82E20022A13D0022B1DD100F1AB
:101250002001836D8164042240699847032384F848
:10126000243010BD90F82E300022022B80F824206C
:101270000BD104F12800A36DA064A28DA16A60695E
:101280009847032384F82E3010BD72B6636CCBB13F
:101290000322A3649A7119689A886069A36D9847BC
:1012A00094F83630022B07D094F83E30022B03D04E
:1012B0000023636462B610BD626C630068339B1ADE
:1012C0006364F7E7A364F5E72DE9F04790F8615010
:1012D000C269002304460B809DB190F8645080F8E9
:1012E0006130012D4ED0022D12D0D5B9836E052B61
:1012F00062D0062B15D1C2F30F322946FFF796FEB6
:101300000FE090F86230B3B900252846BDE8F087B9
:10131000856E052D00F0D980062D00F02581092D60
:101320003ED000256069636D042204F11C019847DA
:101330002846BDE8F08703EB03231B02C3F3072213
:101340008C488D4D82F0090243F00F01825C82EAE5
:101350001343DBB2C35CEB5C41EA0373236272B6F6
:10136000A36C002B00F0F48062B694F8243013B91B
:10137000022384F824300022236D606984F86220FF
:101380009847C1E7816E052964D00629C9D1C2F307
:101390000F322946FFF74AFE022384F86430C0E783
:1013A00090F86030B0F85C20A5690133012084F822
:1013B000603020740A80B5E794F81DC094F86D3051
:1013C000007F94F86C6094F86E7094F86F900CF055
:1013D0003F0CC009634528BF6346B0420146C2F3D3
:1013E000863828BF314661F30705C2F3465AB8452F
:1013F000414663F30F2528BF3946CA45D64661F3F7
:10140000174528BFCE466EF31F65B042E5661BD870
:101410009C4519D8B84517D8CA4515D894F8700016
:10142000C2F3021290420FD14A1C0133D2B2DBB296
:1014300052014FEA8E1E5B010121A281A4F80EE049
:10144000A4F85E3084F8641004F16C012046FFF7C4
:10145000A7FD66E7457F90F86CC0017F90F86D00AE
:1014600094F86E6094F86FE005F03F05C909A84252
:1014700028BF284661450F4628BF674667F3070324
:10148000C2F38637C2F34658B742B94660F30F231A
:1014900028BFB146F04569F31743C14628BFF1465E
:1014A00069F31F636145E3660BD8854209D8B742EB
:1014B00007D8F04505D894F87030C2F30212934271
:1014C000C2D0002384F86430BEE794F81DC094F8BD
:1014D0006D50007F94F86CE094F86E6094F86F8023
:1014E0000CF03F0CC009654528BF654670450746AE
:1014F000194628BF774667F30701C2F38637C2F360
:101500004659B742BA4665F30F2128BFB246C145D6
:101510006AF31741CA4628BFC2466AF31F61704585
:10152000E16604F16C010DD8AC450BD8B74209D87F
:10153000C14507D894F87030C2F302129B1AB3FA6F
:1015400083F35B0984F864302046FFF729FDE8E661
:1015500004F12001032384F82430A16462B604223C
:10156000A36D6069984706E7C2F30F320121FFF7C8
:101570005DFDD6E658C8000848C8000810B590F8C8
:101580006530044643B1012B00D010BD002280F825
:10159000652080F8613010BDC1691F4ACBB2D35CB1
:1015A00083EA1123DBB2D35C83EA1143DBB2D35C61
:1015B00083EA1163D35C5BB9037F03F00F03062B4F
:1015C000836609D8042B1FD9012384F8613010BD2C
:1015D000042380F8623010BD092B15D1838B1B09C1
:1015E000A0F85C30002BEFD0B0F85E209A420FD309
:1015F00090F86C208169406903EB4202636D984763
:10160000012384F8653010BD012384F8623010BDD9
:10161000022380F8623010BD58C80008014600223D
:1016200080F86520436D406904221C31184700BFD3
:1016300000F038000838C0B210289ABF014B185C7F
:101640000020704758C9000800F03803102B03D061
:10165000474B05200B60704720F00700B0F51D6F69
:1016600082B273D012D8B2F50D6F7CD021D8B2F50A
:10167000056F70D04CD8B2F5FA6F3DD0B2F5016F5E
:10168000E6D13C4B1B6A00200233E3E7B2F5396F29
:1016900066D01CD8B2F5296F4BD041D8B2F5216F76
:1016A00025D0B2F5256FD3D1324B1B6A00201633FB
:1016B000D0E7B2F5156F41D0B2F5196F20D0B2F571
:1016C000116FC5D12B4B1B6A00200A33C2E7B2F55C
:1016D000496F38D041F6D0439A4216D02648244B61
:1016E000B2F5456F0ABF034605200020B2E7214B43
:1016F0001B6A00201433ADE71E4B00201B6AA9E7CC
:101700001C4B1B6A00200E33A4E71C4B0020A1E7F2
:10171000B2F5096F9CD1174B1B6A0020063399E77D
:101720001748134BB2F5356F0ABF0346052000205A
:1017300090E7104B1B6A002018338BE70D4B1B6A98
:1017400000200C3386E70F4B002083E7094B1B6A10
:10175000002012337EE7074B1B6A0020043379E731
:10176000094B002076E7034B1B6A0020083371E722
:10177000E00600200400002088010020D40300209F
:101780001C0100208A01002024010020F8B503F08C
:1017900061FD044600F0EEFC00F0FD00042810D0CE
:1017A0001E480022082104F0A1FF1C48002210213D
:1017B00004F09CFFBDE8F84018480022202104F006
:1017C00095BF174D2B68E31A632B13D9154B5A6B32
:1017D0009F6BDE6B7AB11148082104F08DFF87B151
:1017E0000E48102104F088FF0C4896B1202104F027
:1017F00083FF2C60F8BD0948082104F077FF002F13
:10180000EED106483A46102104F070FF0348002E3E
:10181000ECD13246202104F069FFEAE700040048D9
:1018200000070020002C014010B503F013FD224AF0
:10183000224C13682168C31A8B421FD3204BDFED63
:10184000216AD9885B88106007EE103A07EE901A7B
:10185000B8EEC77AF8EE677A1B4B67EE877A1A788C
:10186000F4EEE67AF1EE10FA09D59AB9174801229A
:101870004FF4807104F03AFF6423236010BD62B915
:101880009FED137AF4EEC77AF1EE10FAEED801224A
:101890001A7009E000221A70E8E79FED0E7AF4EE64
:1018A000C77AF1EE10FAF5DC08484FF4807104F0C5
:1018B00023FF6423236010BDFC06002000000020ED
:1018C00084030020F33C4148F8060020000400484F
:1018D000726D404A7C88484A70B503F0BBFC334ABD
:1018E0001368C31A632B5AD9314B324CB3F802C078
:1018F00025781060BCF5547F46D94EF61F639C4591
:1019000042D82D4E0022334605E00132B2F5A57FC4
:1019100003F1080338D099888C45F6D3988984451B
:10192000F3D806EBC203814293ED006A19D007EEAB
:10193000901A07EE10CA06EE900AF8EE677AF8EEF3
:10194000666AB8EE477A06EBC20637EE677A76EE3D
:10195000E77AC7EE276AD6ED027A77EEC67AA6EE68
:10196000A76ABDEEC66A16EE103A9BB2C5B905333A
:101970009BB2732B0BD801232370BDE870400F4836
:101980004FF4007104F0B8BE0DB100232370BDE820
:1019900070400A4800224FF4007104F0A7BE70BDE9
:1019A00009339BB2802BE8D9EFE700BFF406002093
:1019B000A8030020F0060020B8C900080004004871
:1019C00070B500F0D7FB00F0FD00042836D0314C94
:1019D00003F040FC2368C01A63282ED92E4B2F4EEB
:1019E0001B683278D3F89430D3E90001D0F8803006
:1019F000D1F88050C3F30F13C5F30F1562B36FF422
:101A0000F8610B447D2B2DD900233370002224482C
:101A10004FF4004104F06AFE224B1A785ABBA5F23B
:101A2000D57155292ED801221A701D484FF48041D6
:101A300004F062FE03F00EFC206070BD1848002226
:101A40004FF4004104F052FEBDE8704014480022FB
:101A50004FF4804104F04ABEA3F2D573552BD5D87C
:101A6000012333700E484FF4004104F045FE0D4B46
:101A70001A78002AD3D06FF4F862A9187D29D4D936
:101A800000221A70064800224FF4804104F02EFE16
:101A9000D0E700BFEC060020CC090020E9060020BA
:101AA00000040048E80600202DE9F041CAB003F028
:101AB000D1FB744A1368C31AB3F5FA7F02D24AB055
:101AC000BDE8F081106000F055FB6F4B9FED6F7A21
:101AD000B3F806805B8806EE908A07EE903AF8EE3F
:101AE000666AF8EEE77A054667EEA67AF4EEC77AFC
:101AF000F1EE10FA00F19680DFED656A9FED657AF0
:101B0000A7EEA67A17EE100AFEF746FD624B5C8838
:101B1000B4F5547F06460F4640F28E804EF61F63A2
:101B20009C4200F28D805D4B00211A4606E0013197
:101B3000B1F5A57F02F1080200F08480B2F804C07C
:101B40006445F4D3B2F80CE07445F0D803EBC1025D
:101B5000F445D2ED006A7AD007EE90CA07EE10EA9B
:101B600006EE104AF8EE677AB8EE466AB8EE477AA3
:101B7000D2ED025A4A4937EE677A76EE677A35EE49
:101B8000E66AC7EE875AF2EE047AE5EE866A66EEFA
:101B9000A77AFDEEE66AFDEEE77A17EE903A1AB202
:101BA00081FB0231D317C3EBA10303EB8303A2EB49
:101BB000430216EE903A12B219B2002ABCBF52424A
:101BC00092B23848DFF8E8C00068D0F894002B469D
:101BD000D0E900E5DEF88000D5F88050DCF844C09C
:101BE0000391CDE90424C5F30F15CCF3C032C0F343
:101BF0000F10CDE906050892FA212B4ACDF808808E
:101C0000CDE900670BA808F0CBFC0BA8FEF758FB4A
:101C10000246642392B20BA9244805F047FE4AB05D
:101C2000BDE8F0811C4B5C88B4F5547F4FF0000692
:101C30004FF000073FF672AF6FF027010022C0E7B8
:101C40007D21FBE76FF4A66319440022B9E7F2EEA9
:101C5000047A66EEA77A1249FDEEE77AFDEEE66AAF
:101C600017EE903A1BB281FB0321DA17C2EBA102F7
:101C700002EB8202A3EB420216EE903A12B219B2C4
:101C80009BE700BFE406002084030020F33C4148AA
:101C900000AA7C37B81E053FA8030020B8C9000879
:101CA00067666666CC0900206CC90008C40700207E
:101CB000002C014030B595B03822002106A808F06C
:101CC000E8FC0020CDE90100CDE90300059004F017
:101CD0001DFD40224FF48071CDE9091204245522E4
:101CE0000223CDE90F4206A80822CDE90D33CDE944
:101CF00011230693139304F083FD08B172B6FEE737
:101D000003460F250322214601A8CDE90152CDE962
:101D10000333059304F0F2FF08B172B6FEE715B085
:101D200030BD00BF2DE980480024A7B003F06EFA53
:101D3000FFF7C0FFCDE91744CDE91944A44D1B942A
:101D4000EB6CA44843F00403EB64EB6C03F0040376
:101D50000593059BEB6C43F02003EB64EB6C03F005
:101D600020030693069BEB6C43F00103EB64EB6CE2
:101D700003F001030793079BEB6C43F00203EB6452
:101D8000EB6C03F00203224608934CF23831012633
:101D9000089B04F0ABFC4CF238338E4817A9CDE910
:101DA0001736CDE9194404F0E3FAAB6C43F00403B1
:101DB000AB64AB6C03F004030393039BAB6C334342
:101DC000AB64AB6C844D0C943340214604933C22AD
:101DD00017A8049BCDE90D4408F05BFC21462022A6
:101DE0000FA808F056FC4FF40047C5E90144C5E9C7
:101DF0000444C5E90B44AC8385F8244085F8384099
:101E0000EC6385F840404FF0A043042428462E623E
:101E10002B60EF60AC6103F023FA08B172B6FEE705
:101E20000C900CA9284604F005F908B172B6FEE73B
:101E30006A4BADF88000CDE91B408DF882008DF82B
:101E40008C004FF080094FF0090B4FF07F0817A965
:101E50002846CDE92199CDE9173B19961F96CDF873
:101E6000688003F0E9FD08B172B6FEE75C4B1490A0
:101E70004FF0060A0FA92846CDE91148CDE90F3ADF
:101E8000139403F0E1FA08B172B6FEE74146284622
:101E900003F084FD014608B172B6FEE73C220190D2
:101EA00017A8504D08F0F5FB019920220FA808F063
:101EB000F0FB01994C4BEF602846C5E90111C5E9DB
:101EC0000411C5E90B11AC61A9832E6285F82410B9
:101ED00085F83810E96385F840102B6003F0C0F9ED
:101EE00008B172B6FEE7414B1C90ADF880008DF84A
:101EF00082008DF88C0017A92846CDE918B6CDE9E7
:101F00001A84CDE921991F96179303F095FD08B126
:101F100072B6FEE7364B14900FA92846CDE912841D
:101F2000CDF840A011940F9303F08EFA08B172B669
:101F3000FEE74146284603F031FD08B172B6FEE7E0
:101F40002C482D4B036004F0D9F808B172B6FEE7B7
:101F500000252A4C09952946342217A8CDE90C55AD
:101F6000CDE90E55CDE91055CDE91255CDE9145501
:101F7000CDE90A5508F08DFB214B6560A561236012
:101F800020254FF4A653C4E9025320464FF4807332
:101F90000125C4E9043505F0EBF908B172B6FEE796
:101FA000CDE90A00702609A92046099605F086FBAE
:101FB00008B172B6FEE70CAA02212046CDE90C5505
:101FC0000E9505F01BFC0246E0B172B6FEE700BFBD
:101FD0000010024000040048380900200400600896
:101FE0000004002ACC080020000100500020903698
:101FF0000800900CA4080020000C024058080020A3
:10200000002C014060214FF42663CDE91100CDE999
:102010001300CDE90F1315900FA9204605F068FABB
:1020200008B172B6FEE704220FA9204605F060FA57
:1020300008B172B6FEE708220FA9204605F058FA4B
:1020400008B172B6FEE741F2BF430FA90C22204649
:1020500010930F9605F04CFA034608B172B6FEE7EE
:102060004FF4006217924FF4806218920622CDE975
:1020700019024FF40052CDE91B024FF08072CDE9F6
:102080001D001F9217A94FF000722046CDE9215381
:102090002092239305F064FB054608B172B6FEE773
:1020A0002046314C01F06EFE3049A5624FF4E1321A
:1020B0000C232046C4E90012C4E90255C4E90453C4
:1020C000C4E90655C4E9085505F03EFF014608B1CC
:1020D00072B6FEE7204605F089FF08B172B6FEE74A
:1020E0002148002105F0C4FF08B172B6FEE71E4882
:1020F00005F05EFF044608B172B6FEE701F0FEF897
:1021000001220321272004F025F8272004F05EF89F
:10211000224603210B2004F01DF80B2004F056F892
:1021200001220421182004F015F8182004F04EF8BC
:1021300022462146192004F00DF8192004F046F833
:1021400012202246022104F005F8122004F03EF885
:10215000FFF71CFBFFF768FBFFF732FCFFF7BCFB48
:10216000FFF7A2FCF4E700BFC407002000480040CE
:1021700072B6FEE7014B186800F098B8681C0020A2
:1021800002207047704700BF704700BF40F2011344
:1021900081820283C380704740F2012C0423C182F4
:1021A0000283A0F806C00372704700BF036A10B52F
:1021B000002283F8202004460321C06901F084FB3B
:1021C0000323237210BD00BF036A10B5012283F8F8
:1021D000202004460221C06901F076FB022323720D
:1021E00010BD00BF38B5036A0125044683F82050AE
:1021F000C069294601F068FB257238BD4388B0F8F4
:1022000004C00B4323EA020341EA0C0143808180AE
:10221000704700BF8379012B00D0704710B5C37998
:10222000013B0446042B28D8DFE803F02A171003EB
:102230000300036A012283F82020028BB0F91410F6
:10224000806A07F047FC0223A37110BD036A0122D4
:1022500083F82020406AD860F5E7036A002283F8FB
:102260002020C069042101F02FFB228BB4F9161045
:10227000E06901F02DFB0028E5D10323A37110BD17
:10228000036A002283F82020C069032101F01CFBAF
:10229000228BB4F91410A06A07F01CFC228BB4F94D
:1022A0001410E06901F014FBE5E700BF40787047C7
:1022B000808870474088704710B50446FFF7F6FFE6
:1022C00008B1002010BD2046FFF7F2FF0028F8D12A
:1022D0002046FFF7EFFF0028F3D101202070A07106
:1022E00010BD00BF38B50546FFF7E0FF044618B142
:1022F000B0F10C0418BF01242846FFF7D9FF10B134
:102300000024204638BD2846FFF7D4FF0028F7D127
:10231000002CF5D005232B70F3E700BF10B5044661
:10232000FFF7C4FF0B2801D0002010BD2046FFF7A7
:10233000C1FF0028F8D102232370A080012010BD26
:102340008388408843EA0040704700BF007A7047A6
:1023500030B583B004460D46FFF7F8FF022807D0DA
:1023600040F2013304206562E380207203B030BD87
:10237000236A6562DD60207203B030BDC379022B31
:1023800013D0032B09D0012B17D1B0F91430002B37
:10239000B4BF4FF0FF3001207047B0F92430002B5C
:1023A000B4BF4FF0FF3001207047B0F91630002B5A
:1023B000B4BF4FF0FF30012070470120704700BFCD
:1023C000B0F91400704700BFB0F91600704700BFA5
:1023D000008B7047C3690022DA60DA61704700BF82
:1023E000C369586906F0B6BFC06901F069BA00BF99
:1023F000036A186883B26FF30F0082B0184302B00B
:10240000704700BF036A586883B26FF30F0082B051
:10241000184302B0704700BF036A986883B26FF335
:102420000F0082B0184302B0704700BF036AD8683B
:1024300083B26FF30F0082B0184302B0704700BF41
:10244000036AD3F8120083B26FF30F0082B018430F
:1024500002B07047036AD3F8160083B26FF30F001F
:1024600082B0184302B07047036AB3F91A0070478C
:1024700010B5D0E9070401F0ADFAC0F30F43A08115
:10248000E38110BDC0F30F4344F6E6114BF21A622C
:1024900013FB01F310FB02F2A2EB4302B2F1804FF7
:1024A00084B003B205DAD11311F5004F0CDA094AF2
:1024B00001E047F6FF729BB2002063F30F0093B276
:1024C00063F31F4004B0704702480AB28242B8BFAB
:1024D0000246F0E70180FFFF064B00F1FF404FF09E
:1024E000601200F5FE0082B01A605860986802B071
:1024F000704700BF000C024030B50546044685B069
:102500000846FFF7E9FF2DB201B22414001405FBC1
:1025100001F304FB1033B3F1804F05DADA1312F53F
:10252000004F22DA144A01E047F6FF7201FB04F47F
:1025300005FB0044B4F1804F4FEAE43304DA13F5AD
:10254000004F0CDA0C4B01E047F6FF7392B200200B
:1025500062F30F009BB263F31F4005B030BD064924
:102560001BB28B42B8BF0B46F0E7034B12B29A4244
:10257000B8BF1A46DAE700BF0180FFFF30B5054655
:1025800085B004460846FFF7A7FF241402142DB2B5
:1025900000B204FB02F305FB003300FB04F405FB6F
:1025A0001244C3F3CF33002063F30F00C4F3CF34DE
:1025B00064F31F4005B030BD002809DD72B6054B3D
:1025C00040F269121A6058609868C00B62B6704792
:1025D00000207047000C024018B310B5114A124C8D
:1025E00002600023237000F0CDF91048FEF7C4FC10
:1025F0000F4806F059FC0F4807F0C4F90E4801F0E7
:102600007DF80E4806F00CFD0D4801F077F80D48F6
:1026100006F0E6FBFFF7B6FD00F08EFE0123237007
:1026200010BD704704000020D00900206404002081
:1026300048030020D00300209803002084030020DA
:10264000C0030020A8030020014B1880704700BF82
:10265000D4090020034B188880B2B0FA80F04009FA
:10266000704700BFD4090020014B1880704700BF9D
:10267000D2090020034B188880B2B0FA80F04009DC
:10268000704700BFD209002008B5002000F0D0FB41
:10269000064A0748136890F829100133136009B9F6
:1026A000002008BD06F064FA002008BD8C1C002044
:1026B00028040020F8B50446A8B11B4E306801F08C
:1026C00001F80146194D04EB840304EB430305EBC9
:1026D0008305CA43284692B2FFF790FD2846FFF7CC
:1026E0002FFEB8B9F8BD124B124859890E4E06F0AC
:1026F00089FB0746306800F0E5FF0F4B0546598916
:102700000E4806F093FC074307F00E0745EA070161
:1027100089B2D7E756F8240000F09EFF2046BDE8B6
:10272000F84000F0E5B800BFCC090020040000200C
:10273000C0030020A8030020980300208403002089
:1027400008B5044B1B78012B00D008BD0020FFF713
:10275000B1FF08BDD00900201E4B1B78CBB170B56E
:102760001D4C2388B3B1013B9BB21C4A23801388C4
:102770009BB21BB11388013B9BB21380184A13888C
:102780009BB21BB11388013B9BB21380FFF7D8FFAC
:1027900070BD7047134D00F0AFF9FFF7F5FC294607
:1027A00051F80C0B83689847686030B129460A22BB
:1027B00051F8080B0368984708B90123D5E7284664
:1027C00000F0D4FC2868EA894668A9680A23B04763
:1027D000F3E700BFD0090020D6090020D40900206B
:1027E000D20900205404002008B5002000F080F831
:1027F000BDE80840024800228021FFF7FFBC00BF6F
:1028000004000020F0B44FF09043334A20218CB0F4
:10281000DA61D961DA61DA690B9240212F4A0B98AB
:10282000DA61D961DA61DA690A924FF480712C4A6F
:102830000A98DA61D961DA61DA6909924FF40071B4
:102840004FF481320998DA61D961DA61DA69089264
:102850004FF400614FF484320898DA61D961DA618B
:10286000D969204A079101244FF001110798D161DD
:10287000D461D161D0690690069D4FF482304FF447
:102880008065D861DD61D861D8690590059D1648DD
:10289000D0610225D561D061D2690492049A134AAD
:1028A0004FF490364FF40057D661D761D661D269A4
:1028B0000392039AD861DD61D861DA69029203F567
:1028C000A053029AD961DC61D961DB690193019B54
:1028D0000CB0F0BC704700BF2000010040000100B8
:1028E0000001010000040048020001000008004847
:1028F00038B5044604EB84031D4804EB430300EBA6
:102900008300FFF723FD1B4B013804EB0412C0B218
:1029100003EB420C0021012843F812104FEA420257
:1029200088BF62464FEA0415CCF80410CCF80810B2
:1029300088BFD1602A1903EB42030F49002551F8E3
:102940002400C3F812502946C3F81650C3F81A5091
:1029500006F0BEFA094B294653F8240006F0B8FAEF
:10296000074B53F82400BDE8384000F075BE00BFA7
:1029700004000020A80900203800002034000020B6
:10298000CC090020F0B52D4D2D4E2E482E4F2F4C4A
:1029900085B0286005F028FE304606F085FA3846F6
:1029A00006F006FF20683A46314600F065FF284FE2
:1029B0002A6800922168274B2748284E284D3A461E
:1029C00006F0FEFB274806F06FFA274806F06CFA7F
:1029D000264B274A1B683946DA609D60304606F070
:1029E00049FA244A24481660244A254E106006F00D
:1029F00055FB0020FFF77CFF206800F055FF012306
:102A0000206885F8203000F0E5FFC0F30F42034650
:102A10002068EA81AB8100F0DDFFC0F30F43304650
:102A20002B82FFF7C3FB206800F0D0FF0022014695
:102A3000304605B0BDE8F040FFF7A8BBCC09002048
:102A4000480300205C000020180100203C0000200A
:102A5000D00300200401002040020020F4000020E8
:102A6000A80900201C030020F002002030000020F4
:102A700084030020D809002044000020A40900207D
:102A800004000020704700BF2DE9F843044672B6E9
:102A9000164E00EB001506EB45054FEA0018B5F998
:102AA0000C90B5F90E7062B6114804EB840304EB88
:102AB000430300EB8300FFF749FC95F820301BB976
:102AC0000138C3B2012B09D872B6A04406EB480600
:102AD000A6F80C90F78162B6BDE8F883054B53F871
:102AE000240000F03DFF81466883EDE7A80900203F
:102AF000040000203C000020F0B5B64C83B0002359
:102B00002046ADF80030FFF721FC69460546B24883
:102B100006F050FDB14B186806F04CFA2046FFF75E
:102B2000C9FB18B10A23637003B0F0BD2046FFF75C
:102B3000BFFB68BB6378132BF6D801A252F823F0D1
:102B4000572D0008292B0008292B0008292B0008E5
:102B5000C92C0008292B0008952C0008292B0008F7
:102B6000752C0008292B0008912B0008672C000801
:102B7000292B0008292B0008292B0008292B0008E5
:102B8000192C0008E72B0008292B0008992B0008B6
:102B90000B23637003B0F0BD2378052B00F0F680A3
:102BA0008F4801A906F044FF05468D4806F0DCFF7A
:102BB0000DB90028B8D08B4D8B48002106F088F95C
:102BC0008549286800F06EFE0020FFF75BFF0020BB
:102BD000FFF75AFF286800F003FF7E48FFF71AFB53
:102BE00006236370A0E72378804D052B286800F04A
:102BF000CF80012100F034FD002895D02378032BED
:102C000000F005812868002105F064FC1420FFF71E
:102C10001BFD1023637087E72378052B00F0B68037
:102C2000FFF718FD00283FF47FAF704E306805F0C5
:102C30008BFC6F4B6A49012283F82020694B18688E
:102C400000F030FE644806F08DFD0020FFF750FED6
:102C50006B1EDBB2012B8CBF04230623306863702C
:102C600000F0FCFC60E72378022B7FF45DAF0023CB
:102C7000238059E7FFF7FEFC00283FF455AF594B7E
:102C80005749186800F00EFE554806F06DFE002307
:102C9000238049E72378052B78D04E48FFF7BAFA0E
:102CA0006B1EDBB2012B40F2A9800020FFF7ECFE87
:102CB000494B1A78DB789A427FF436AF45480022B8
:102CC0002021FFF79BFA2FE72378052B5ED0494898
:102CD00006F0FEFA024600286AD13E481021FFF7AE
:102CE0008DFA3F480DF1020106F0A2FE414806F0C0
:102CF00027FB00283FF418AF374E0DF10201304694
:102D000006F090FD05463348FFF738FB41B23046E8
:102D100006F026FE3248294606F018FF002D3FF443
:102D200003AF334FB6F904107868334DFFF7E4FB77
:102D30000190286806F0B2F9B7F90C102868002253
:102D400006F0F8F9BDF904102868192206F0F2F926
:102D500013236370E8E6237803F0FD03012B7FF46F
:102D6000E3AE6B1EDBB2012B06D91A48FFF706FB58
:102D70000146204806F060FA1C4D286890F87F1044
:102D800001BB00F06DFC11236370CDE6174B186892
:102D900005F0DAFB0020FFF7ABFD124B186800F0DE
:102DA00083FD4FF44870FFF75FFC08236370BBE6B8
:102DB0000C4B186800F0D4FD0D4BB3F9102098812E
:102DC000DA818EE70121A0F8601000F049FC286844
:102DD000002119E704000020180100203000002025
:102DE000D00300203C00002048030020CC09002034
:102DF000A809002040020020A409002001A90948D8
:102E000006F016FE084B186806F03CF88CE6002029
:102E1000FFF76EFD054B186800F046FD0023238088
:102E200082E600BFD0030020D80900203C0000202B
:102E30002DE9F047DFF89491634C88B0064600F026
:102E4000F9FC00F0C1FC99F80130D4F816000590A7
:102E5000132B00F0AD805D48DFF8A0A1FFF776FAF4
:102E60005B4B1B6880465B69DAF80000B3F90470BD
:102E7000036802A998470298FFF704FB39460390BC
:102E8000FFF73AFBDAF80030009093F8841000293D
:102E90006ED1B8F1010F00F085804E4805F030F991
:102EA000394605460190FFF769FB0146DAF8000054
:102EB000049190F88430002B41D10298206003984F
:102EC00060600098C4F81250C4F81610A783A06080
:102ED000414806F035FA99F80130054663B10A3BDE
:102EE000012B09D93D4B6068DB88069005A93C4859
:102EF000ADF81C3006F06CFA394C204606F006FCA2
:102F00009DB199F80130132B0BD8364A22FA03F3FE
:102F1000DB0706D5A3883448ADF8103004A906F0C5
:102F200035FD304608B0BDE8F087294604F134008D
:102F300005F0CEFF99F80130132BE6D9F1E700F048
:102F400067FA014602982060039860600098A060CC
:102F500001290498C4F81250A783C4F81600B7D109
:102F60001A480022FFF74AF9304608B0BDE8F0875A
:102F7000BDF90030B4F90C10C91A1C4B186805F0E3
:102F8000D9FFBDF90230B4F90E10C91A184B054625
:102F9000186805F0CFFFA9B2B8F1010F41EA00416E
:102FA0007FF47BAF134B186805F068FF014674E7A8
:102FB000114D286806F09CF800287FF44CAF286873
:102FC00006F074F8A08146E7A8090020040000205C
:102FD0003C0000204000002040020020840300202C
:102FE0001801002050000800D00300203800002005
:102FF00034000020D8090020A4090020CC090020BA
:103000002DE9F04F89B08568334B06934FF00008E7
:10301000324B4468B0F90C20ADF816800646A0F893
:103020000E806F18CDF80C800793C5F10109A2F14D
:10303000020A002A0FFA8AFE0DF116031FFA8AFA15
:1030400036DD34F802CB0DF120082CF007000CF02F
:10305000070B1CF0060F224680B20CF0380108EB7B
:103060008B0B2DD15BF808BCCDF800E0D847BDF83C
:10307000161005EB0903DBB2AAEB0102012B12B219
:103080000C4412D0BD4221D005F8010BF389013365
:10309000F3810028CBD0072812D001230A280393FC
:1030A000C5D1039809B0BDE8F08F002AEAD103909A
:1030B000039B002BF5D10398F38109B0BDE8F08F95
:1030C00001230393039809B0BDE8F08F082303930D
:1030D000039809B0BDE8F08FAD3F0008AD4000088F
:1030E0002DE9F04786B00023ADF80E30C381B0F86B
:1030F0000C801C4B04931C4BD0F8049086680593FD
:10310000B8F1000F29D007460CB24D4612E05EF828
:1031100008AC0094D047A8EB050319FA83F39BB2DF
:10312000E0B9BDF80E10FA89641A0A440E44FA8117
:1031300024B29BB135F802CB0DF1180A2CF0070030
:103140000CF0070E1CF0060F0DF10E03324680B294
:103150000CF038010AEB8E0ED9D0012006B0BDE884
:10316000F08700BFB5460008E9470008F0B50446FF
:103170004668226836F8023B8089928903F47F45CD
:10318000013A023823F0070CB5F5807F91B283B085
:1031900080B21FFA8CFC12B23CD0013B03F0070353
:1031A000544DA08103EB830703EB470305EB830733
:1031B000BCF1380F4FF000056660E58135D8BCF1F1
:1031C000380F1ED8DFE80CF06C1D1D1D1D1D1D1DC8
:1031D000741D1D1D1D1D1D1D591D1D1D1D1D1D1D8C
:1031E0004B1D1D1D1D1D1D1D531D1D1D1D1D1D1DAB
:1031F0005E1D1D1D1D1D1D1D471D1D1D1D1D1D1D94
:10320000660000230220A268D054E3890133E381E1
:1032100003B0F0BDCCF3C40C0023BCF1010FA081BE
:103220006660E38151D90D20EDE7BCF1680F09D04C
:1032300043D8BCF1480FE4D13846FFF719F9E389C8
:103240002846E0E7A3680093314604F10E03FEF739
:1032500097FFE389D7E73846FFF728F838B93846AB
:10326000FFF72AF880F00100E389C0B2CBE73846C7
:10327000FFF738F8E3890020C5E72046FFF730FF65
:10328000E389C0E73846FFF711F8062829D0E3891B
:103290000020B8E73846FFF741F8E3890020B2E79D
:1032A000A36804210122E1811A70E3890020AAE7C2
:1032B0002046FFF7A5FEE389A5E7BCF1780FA0D172
:1032C00002F092FFE38928469DE70B4B53F82C5000
:1032D0006DB1A3680093314604F10E03A847E3895A
:1032E00091E73846FFF776F8E38900208BE72B4615
:1032F00099E700BF04000020DC09002008B503F0B6
:1033000001FE0A4BA3FB0030C00902F07FFF084B0F
:10331000002219684FF0FF3002F01CFF0548FFF74C
:103320005BF9BDE80840FFF76DBA00BFD34D6210EE
:10333000F8040020681C00202249234A8B6810B43E
:1033400023F4401323F0700343F0100383B08B6029
:103350008B6823F4803323F0070343F006038B606C
:10336000936DDB0716D4936D43F001039365936D62
:103370004FF0804103F001030193019B4B6943F03F
:1033800001034B61936D23F00103936503B05DF876
:10339000044B70474FF080430C485A6859680C4CF6
:1033A000014041F020015960596941F00101596122
:1033B0005968224001400A435A6003B05DF8044B4B
:1033C000704700BF002C0140001002408FFFFFFD3E
:1033D00070000002013270B552086FF0020655010C
:1033E0000661002293F800C0BCF10F0F02F1010E3C
:1033F0000CD80469A407F5D51FFA8EF29542066130
:10340000F0D81C780F2CEDD801230B8070BD00BFC5
:1034100030B5B0F870400B1404FB03F3C3EBC37377
:103420004FEA430E43F38072B0F84E3009B203FB0B
:1034300001F11EEB01034FEA94054FEA530342EBFF
:10344000E174BEEB010C62EBE1724FEA5C0153EAFE
:10345000C47383B041EAC27157D4002935DB01221D
:1034600080F87A205A1A44BF02F57F3202F2FF3206
:10347000002BB8BF03F5FF3390F8864005EBA2425E
:10348000B8BF03F2FF1302EB6141A2EB6343002CD0
:1034900060D11FFA81FC95B29CB2A0F85C404469EF
:1034A000A0F858C023EAE37322EAE27221EAE1714C
:1034B000A0F854302346A0F85A50A0F85020A0F8A5
:1034C000521003B0BDE830401847BEF1000F67DD71
:1034D0000023AEEB010280F87A3001F5FF3303F2EE
:1034E000FF1305EBA24290F87D4002EB6341A1EB94
:1034F0006E43002C40F09B8090F88650002D00F029
:10350000A5804FF0020C0125C7E7002990F88640FE
:1035100061DBBEF1000F22DD022280F87A20B3EBDE
:103520000E0244BF02F57F3202F2FF32002BB8BF19
:1035300003F5FF3305EBA242B8BF03F2FF13A2EB82
:10354000634303EB6E41002C6CD11FFA81FC9DB2EA
:1035500094B2A2E74FF0020C002501249DE7BEEBD8
:10356000010248BF02F57F324FF0030348BF02F269
:10357000FF3280F87A30BEF10003B8BF03F5FF33A5
:1035800005EBA24202EB6141B8BF03F2FF13A1EBCE
:103590006343002C55D04FF0000C012502247CE73A
:1035A0004FF0050280F87A20A3EB0E02714605EB7E
:1035B000A242B8BF0EF5FF3190F88640A2EB6343FC
:1035C000B8BF01F2FF1103EB6141ACB34FF0010C46
:1035D0000225002461E7042280F87A205A1A44BFA9
:1035E00002F57F3202F2FF320029BCBF01F5FF3144
:1035F00001F2FF11002BB8BF03F5FF3305EBA24228
:10360000B8BF03F2FF1302EB6141A2EB634324B99D
:103610001FFA83FC95B28CB23FE74FF0010C0025F6
:1036200002243AE74FF0000C0225012435E74FF061
:10363000020C0125002430E71FFA82FC9DB28CB2F7
:103640002BE71FFA83FC8DB294B226E71FFA82FCA7
:103650008DB29CB221E700BF4368184783681847C2
:1036600010B5044679B1012901D0002010BDB0F891
:1036700060306BB1013B9BB2A0F86030002BF4D1FD
:10368000C368984704E0FFF7E7FFE36820469847E0
:10369000012010BD10B50446FFF7DEFF012384F8BA
:1036A000823004F1780010BD4A6C03464FF0010CE3
:1036B00042F480624A64783083F881C083F883C022
:1036C000704700BF034690F88100A8B1002283F83C
:1036D00081204221022093F880201AB1002283F831
:1036E0008020084693F882202AB140F480600022AE
:1036F00080B283F8822070474021ECE72F490A7896
:10370000032A56D810B52E4C036844F822000273E1
:1037100001320A709A68D40722D45A68042122F030
:1037200004025A6019605A68202122F020025A606F
:1037300019609A6822F0404222F03F0242F00042B3
:103740009A609A68002AFCDB1A68D10708D41D49E0
:103750009A680A4042F001029A601A68D207F7D5C7
:10376000196B21F00F011963017A01228A4009299E
:1037700042EA816201EB410C1DD9ACF11E0C42EA18
:103780000C5242F000724FEAD25C0CF0040C14337D
:10379000406853F80C10C2F304524FF0070E9040EB
:1037A0000EFA02F221EA0202024343F80C20012041
:1037B00010BD0020704742EA0C52E4E76C1C002068
:1037C000701C0020C0FFFF7F174B1B7853B3174BB3
:1037D000174A197852F82120117A12680123092911
:1037E00001EB410003FA01F343EA816384BF1E3811
:1037F00043EA0053116B94BF43EA005343F0007354
:103800001B0D21F4F86103F4F8630B4313630423E5
:10381000116C1360936823F0004323F03F0343F0DF
:1038200004039360704700BF6C1C00206D1C0020D7
:10383000701C00200D4B1B78B3B130B40C490D48FF
:103840000A7850F82200046825686D0703D5246CB7
:1038500024F00F044481013B9A420BBF0023013244
:103860000B700A7030BC7047704700BF6C1C0020A2
:103870006D1C0020701C002010B4B0F930C0016134
:10388000B0F9321090F82E40047000234FEA0C4437
:103890000904C0E9014142615DF8044B4380C36003
:1038A000C3617047416170470378032B04D0042B38
:1038B00004BF0023836070470069002105F008BB46
:1038C000B0F90600704700BF00230170C360704765
:1038D00010B40378042B19D0B0F822C08C4503DA59
:1038E00000205DF8044B7047B0F928408C42F7DCAB
:1038F000848C8C4203DDB0F926408C42F0DB4468B6
:10390000AAB9032B0AD10904416009E0438D8B4217
:10391000E6DBB0F92C308B42E2DCE2B909048160CD
:103920000023C360C36101205DF8044B70474FEA78
:10393000244C038C094C418002FB03F3A4FB03439A
:103940009B090133A1EB0C0C4FEA0C42C36092FBC4
:10395000F3F2C261E7E7B0F90AC0EAE7D34D6210BB
:1039600038B50278C368042A044612D0012B456892
:1039700008D9C169013B0D44C360032A11D0281442
:10398000A56038BDF9D1B0F9025000232D04C36001
:10399000F3E7012B856811D9C269013B1544C36067
:1039A000EDE7606905F0D6FCC0EB254109B220695E
:1039B00005F0C0FA65600504A56038BDDFD1B0F937
:1039C000025000232D04C360D9E700BFB0F93000D6
:1039D000704700BFD0F8320082B002B0704700BF1D
:1039E00010B50446406905F0B5FC0004606010BDE8
:1039F000444BDA69520610B509D543494348CA69B0
:103A0000402422F00102CA611C62FDF711FC3D4B0B
:103A1000D869DA69D9699B684C076AD5D8071ED579
:103A2000384B0E221A624FF0402202F6080353E888
:103A3000003F23F0010302F6080040E800310029AE
:103A4000F3D14FF0402202F5006353E8003F43F00A
:103A5000100302F5006040E800310029F3D1294B42
:103A6000DA691B68D20643D5DB0641D54FF0402208
:103A700002F5006353E8003F23F0100302F50060F5
:103A800040E800310029F3D14FF0402202F608034C
:103A900053E8003F43F0010302F6080040E800311C
:103AA0000029F3D14FF0402202F6080353E8003F0B
:103AB00023F0400302F6080040E800310029F3D16A
:103AC000104B5B6A4FF0402202F6080353E8003FB8
:103AD00043F0400302F6080040E800310029F3D12A
:103AE000094B0A480222BDE810405A60FDF796BD16
:103AF00010BDD907B3D502F0020200F0080002435E
:103B00008ED1ACE700480040000002406404002071
:103B100008B5FEF769FEFEE710B50D4C2378022BC1
:103B20000FD00133DBB20B4A237013689B0704D517
:103B3000022309485360FDF721FDBDE81040FEF760
:103B40000BBE01F07BFB02F07DFB0123EBE700BF26
:103B5000EC040020000002406404002000B50E4B7D
:103B60001A6E42F0010283B01A661A6E02F0010268
:103B70000092009A9A6D42F080529A659B6D03F014
:103B8000805301930420019B02F0D2FA03B05DF848
:103B900004EB02F02DBE00BF001002400000000048
:103BA00010B504469CB0002144220BA8CDE90611B3
:103BB000CDE908110A9106F06CFD2368B3F1A04F1E
:103BC00004D0434A934245D01CB010BD4FF400428C
:103BD0004FF080530BA80B921A9303F0BDF9002805
:103BE00069D13C4A13680133012B136009D13A4B68
:103BF000DA6C42F40052DA64DB6C03F40053019394
:103C0000019B354BDA6C42F02002DA64DA6C02F088
:103C100020020292029ADA6C42F00102DA64DB6C52
:103C20000120032103F00103CDE9060103930024E1
:103C300006A92A48039B089402F09AFB0222032358
:103C40004FF0904006A9CDE90623089402F090FBBE
:103C50001CB010BD4FF400424FF080530BA80B92E4
:103C60001A9303F079F948BB1A4A13680133012B00
:103C7000136009D1184BDA6C42F40052DA64DB6C41
:103C800003F400530493049B134BDA6C42F00102DB
:103C9000DA64DB6C9FED0C7B03F00103059306A94E
:103CA00000234FF090408DED067B059A089302F0BB
:103CB0005FFB1CB010BDFEF75BFA92E7FEF758FA07
:103CC000D2E700BFAFF300806000000003000000F7
:103CD00000010050801C0020001002400014004829
:103CE000094B02689A4200D07047D3F8482442F04A
:103CF000080282B003F580639A649B6C03F00803AA
:103D00000193019B02B07047000C024000000000CC
:103D100010B51B4A016888B000239142CDE90233F7
:103D2000CDE90433069301D008B010BD03F1804300
:103D300003F504339FED107B1A6E42F400621A669D
:103D40001A6E02F400620092009ADA6C42F00102EC
:103D5000DA64DB6C03F00103019301220C2302A956
:103D60004FF090408DED027B019C0492069302F08F
:103D7000FFFA08B010BD00BF0008000012000000EC
:103D8000002C014070B52B4A01688AB00023914293
:103D9000CDE90433CDE90633089301D00AB070BDF4
:103DA00003F1804303F504334FF40050DA6C42F022
:103DB0000402DA64DA6C02F004020192019ADA6C0D
:103DC00042F00202DA64DA6C02F002020292029A13
:103DD000DA6C42F00102DA64DB6C022103F00103C9
:103DE000CDE90401039302240225042304A9124807
:103DF000039A08930626CDE9064502F0B9FA032294
:103E0000022304A90D480896CDE90423CDE906450F
:103E100002F0AEFA4FF4E062022304A94FF09040A2
:103E2000CDE90645CDE90423089602F0A1FA0AB0CF
:103E300070BD00BF002C014000080048000400488D
:103E400070B5044698B00021442207A8CDE90211BC
:103E5000CDE90411069106F01CFC354B22689A420C
:103E600001D018B070BD042307A8079303F074F8BD
:103E700000284CD12F4B30489A6D304E42F48022AE
:103E80009A659A6D02F480220092009ADA6C9FED96
:103E9000247B42F00402DA64DB6C8DED027B9FED43
:103EA000227B03F00403019302A90723019A0693DE
:103EB0008DED047B02F05CFA21491C220023C6E947
:103EC000001230468022C6E90233C6E90423C6E95F
:103ED0000633336202F0BAF9F8B91A4D1A49C4F838
:103EE00080601D220023C5E900122846102180228F
:103EF000C5E90213C5E90533C5E90733B4622A6190
:103F000002F0A4F930B9E567AC6218B070BDFEF7F5
:103F10002FF9AFE7FEF72CF9F5E7FEF729F9DCE713
:103F2000000C000002000000000000000000000083
:103F300000480040001002400008004864070020CC
:103F400008000240040700201C0002404FF0A0437C
:103F500040221A60FEF798BB034B04486FF0010241
:103F60001A6104F067BC00BF002C01405C00002017
:103F70000C4908B50B69180605D56FF080030A488F
:103F80000B61FFF791FB074B1A69D20505D56FF45A
:103F9000807205481A61FFF77DFBBDE80840FEF717
:103FA000DBBB00BF002C01405C00002010B40839CE
:103FB000BDF904C0202912D8DFE801F01711111152
:103FC0001111111121111111111111112F111111B3
:103FD0001111111139111111111111114D0000227E
:103FE0001A8007205DF8044B704748284FF0010203
:103FF00014BF052004205DF8044B1A807047B0F50B
:10400000656F39D042D9B0F5696F35D041F6583275
:10401000904214BF052004202FE018284FF004021E
:1040200014BF052010465DF8044B1A80704701212B
:10403000198092F9000028B31FFA8CF003E0198070
:1040400012F9014FF4B101F1010C81421FFA8CF118
:10405000F5D30420C6E71288023292B21FFA8CFC14
:1040600062451A801AD8A828F3D01BD820F0400047
:104070002828EED00520B5E7002002225DF8044B89
:104080001A807047002313700420ABE720F0400033
:10409000B0F5B26F14BF05200420EEE700221A80AD
:1040A0000A209FE7E828E5D1D3E700BF30B583B009
:1040B0000839BDF918E094461C46202912D8DFE8DB
:1040C00001F01611111111111111231111111111FA
:1040D00011115A1111111111111148111111111150
:1040E0001111670000232380072003B030BD88280A
:1040F00000F0968020F0800048280CBF04200520A6
:104100000123238003B030BDB0F5196F158800F08E
:104110005A8260D8B0F5347F00F0508200F2A68059
:10412000B0F5C87F00F0198200F20781D02800F0B6
:104130001E82B0F5887F00F01582902840F05482EE
:10414000B54829B204F0B8FE00200223238003B052
:1041500030BD012222809CF90030002B36D01FFA9E
:104160008EF303E022801CF9011F79B3511C9342A6
:104170008AB2F7D82DE098286AD061D820F04000A4
:10418000182814BF052004200423238003B030BD69
:1041900011888A1C92B21FFA8EF39A4222803BD871
:1041A000B0F50A7F00F0E18000F2AC80B0F5D47F7A
:1041B00000F08E8000F2B580A8280AD000F29B8122
:1041C00020F04000282804D005208EE700238CF83A
:1041D0000030042089E741F29053984200F0FF81BB
:1041E0005BD841F29043984200F0938140F22281E3
:1041F00041F21053984200F0C48141F2505398426A
:1042000000F0BA8141F2D043984240F0ED818248FB
:10421000294604F089FE97E7002323800A2064E7FB
:104220001378042B65D0032B00F04881022B00F09B
:104230004181012B02D17948FDF7D4FF00205FE7CF
:10424000D82854D0B0F58C7F14BF052004209BE7FC
:10425000B2F900307249714881FB0321A1EBE3718F
:10426000002209B2FDF792FF00208DE7B0F58A6FBA
:1042700000F0548100F2FF80B0F5547F00F06081BF
:10428000B0F5647F00F04F81B0F5447F40F0AC8121
:10429000644829B204F040FE56E741F6D003984244
:1042A00000F07E8100F2F58041F21063984200F048
:1042B0002B8141F25063984200F0218141F2D053AA
:1042C000984240F091815848294604F005FE3BE7AA
:1042D000DCF80210524BBCF8062083FB0103A3EB71
:1042E000E1714E4809B2FDF751FF0020FDE60420C0
:1042F0004AE74A48FEF7B8F8002201464748FDF76A
:104300004BFF9BE7B0F55A7F28D0B0F5A56F7FF43F
:104310005BAF46480CF1020103B0BDE8304004F049
:10432000E5BCB0F5F47F7FF44FAFBCF80620BCF9D4
:1043300002103A48FDF730FFD7E7B0F5047F00F0F0
:104340002A81B0F5247F00F02181B0F5E87F40F0AC
:104350004B81354829B204F0B1FDF5E6DCF80210D6
:104360002E480191FDF7F4FFBFE74B077FF456AFEE
:10437000C9B22F293FF652AFC908B6D0BCF90230F6
:10438000274ABCF8085082FB0340A0EBE370284B9F
:10439000BCF906401C8201299D81D881A5D0BCF9B9
:1043A0000A40BCF90E5082FB04E0A0EBE470022945
:1043B000BCF810401C839D83588396D0BCF91240F2
:1043C000BCF9165082FB04E0A0EBE4700329BCF8B2
:1043D00018409C841D85D88487D0BCF91A40BCF94C
:1043E0001E5082FB04E0A0EBE4700529BCF82040DD
:1043F0001C869D8658867FF478AFBCF92210BCF9E4
:10440000260082FB0142A2EBE172BCF828409C87A7
:10441000A3F84000DA8768E7480300200400002082
:10442000ABAAAA2AF00200201C03002028040020C6
:1044300040020020B0F5696F3FF486AE52D8B0F567
:10444000656F3FF481AE00F2CF80B0F5396F00F0B8
:10445000CD8000F2E880B0F5256F00F0C78000F253
:10446000FD80B0F51D6F00F0C180B0F5216F14BF65
:104470000520042069E6B0F5016F00F0B78021D86F
:10448000B0F5926F40F0B480824829B204F014FD78
:104490005AE641F6D023984200F0878000F2D78098
:1044A00041F61013984240F0CB807A48294604F038
:1044B00013FD49E67848FDF787FEBFE67648FDF72D
:1044C00075FEBBE6B0F5156F40F09F807248FDF7B2
:1044D000ADFF03460193ADF804506F480199FDF715
:1044E00037FF31E641F2504398427DD16B4829466F
:1044F00004F0F2FC28E6E8283FF46BAE64E6684876
:10450000294604F011FD1FE66548294604F0F0FC39
:104510001AE66248294604F0EBFC15E65D4829B22C
:1045200004F0CCFC10E601AA0DF102015D4805F093
:10453000F5F95C48BDF902102AB205F0F7F903E677
:1045400001AA0DF10201574805F0E8F95548BDF9F7
:10455000042029B205F0EAF9F6E5514829B204F041
:10456000ABFCF1E54D4829B204F0D6FCECE54B4834
:1045700029B204F0A3FCE7E54B48294604F0B8FC57
:10458000E2E54948294604F0A7FCDDE5464829B2A2
:1045900004F092FCD8E5424829B204F0BDFCD3E512
:1045A0003C48294604F0A4FCCEE5404A4049C5EB0E
:1045B000C533A2FB03235B090B81C5E53A4829B249
:1045C00004F07CFCC0E53448FDF730FF034601935E
:1045D000ADF8065030480199FDF7BAFEB4E532480F
:1045E000294604F0A1FCAFE50520AEE50420ACE5CA
:1045F000FAD3B0F5F26FF9D045D820F04000B0F50D
:10460000B26F14BF052004209FE5EDD8B0F50D6F03
:10461000ECD02CD8B0F5056FE8D0B0F5096F14BF19
:104620000520042091E5B0F5456FDFD025D8B0F521
:104630003D6FDBD0B0F5416F14BF0520042084E549
:1046400041F69023984214BF052004207DE541F6F1
:104650005833984214BF0520042076E5B0F5296F41
:10466000C4D0B0F5356F14BF052004206DE5B0F55A
:10467000116F14BF0520042067E5B0F5496F14BF22
:104680000520042061E5B0F5FA6F14BF0520042071
:104690005BE500BF4C01002004000020480300201F
:1046A0001C03002018010020F00200201F85EB51A0
:1046B000F400002010B5A1F1080CBDF908E0BCF130
:1046C000200F12D8DFE80CF01B111111111111117C
:1046D00027111111111111112211111111111111A3
:1046E00035111111111111111300072010BD2828C7
:1046F00029D012880232052092B21A8010BDBEF174
:10470000000F1EDD01221A80052010BDBEF1030F2F
:1047100015DD0422F7E7BEF1010F10DDB0F5656F7E
:104720005AD0B0F5696F14BF0520002002221A800C
:1047300010BD20282CD060280FD00022E3E70820ED
:1047400010BD084610BD1FFA8EFE0A21BEF10B0FE8
:10475000118035D80C220820CFE7204C94F90000B6
:104760000121198080B11FFA8EFEA44608E002F8EC
:10477000010B1988013189B219801CF9010F18B198
:104780007145F4D3062010BD00231370002010BD26
:10479000134C94F90000012119800028F4D01FFA6D
:1047A0008EFEA44609E002F8010B1988013189B296
:1047B00019801CF9010F0028E6D08E45F3D8E1E7F7
:1047C000084948680C680989C2F80600C2F8024026
:1047D000518100200C2290E70020A7E790D4000828
:1047E00078D400086CD4000830B595B01D46A1F10E
:1047F0000803BDF960C01446202B12D8DFE803F08F
:1048000031111111111111116A111111111111111F
:104810004711111111111111611111111111111102
:104820001400072015B030BDB0F5D47F00F0D4815E
:104830007ED8E82804F1020300F0EA8100F2218129
:10484000682800F0DA81A82840F0AE811FFA8CFCBD
:104850001022BCF1110F228000F24B82122308209B
:1048600082E0BCF1000F40F37481882800F0988149
:10487000C82800F09181482840F0CD80B648FDF767
:1048800015FD2070002001232B8015B030BDBCF138
:10489000030F4ADDD82800F0C58100F26D81582849
:1048A00000F04F81982800F0C481182840F0BF81A3
:1048B000A948FDF745FD2060002004232B8015B09A
:1048C00030BDA02800F08F80E0286FD000232B801F
:1048D0000520A7E7BCF1010F27DDB0F51D6F00F043
:1048E0002E8344D8B0F58A6F00F0248340F295807F
:1048F000B0F5056F00F0288300F2BB81B0F5BA6F08
:1049000000F0A38200F26082B0F5926F00F0458360
:10491000B0F5B26F40F03D82904803F0EBFB208091
:10492000002002232B8015B030BD082015B030BD0B
:10493000B0F50A7F00F0BD80B0F55A7F00F03981F4
:10494000B0F5F47F40F03081042323808248FDF7E6
:104950003BFD034663808048FDF73AFD238802460D
:1049600002330020A2809BB22B8015B030BD41F2F3
:104970009043984200F0D28266D8B0F53D6F00F0C7
:10498000118300F26381B0F5296F00F0FF8200F21D
:10499000E681B0F5216F00F0C682B0F5256F40F0DA
:1049A000F8816D48FDF756FD2080B9E76C4B1A6819
:1049B00001232B8002F1240192F924207AB11FFAFD
:1049C0008CFC08E004F8012B2B8801339BB22B8070
:1049D00011F9012F1AB19C45F4D8062022E70023D3
:1049E000237000201EE75F4A012311682B8091F994
:1049F0000020002AF3D01FFA8CFC09E004F8012BF8
:104A00002B8801339BB22B8011F9012F002AE6D0AD
:104A10009C45F3D8E1E7052035E7B0F5047F00F0C9
:104A2000618200F23981B0F5887F00F03D8200F2AA
:104A3000C081902800F0A082D02840F0AA814A4886
:104A400004F042FA20806BE741F21063984200F0D4
:104A5000358200F2338141F25053984200F01F82B8
:104A600000F2998141F2D043984200F08A8241F2EB
:104A70001053984240F08D813C4804F02BFA20807E
:104A80004EE7B0F5947F40F08F801FFA8CFC0C222B
:104A9000BCF10D0F228040F22981354A506814681C
:104AA0009168D268DA6058601C60996000200E231B
:104AB0005AE71FFA8CFC2823BCF1290F238040F20F
:104AC00012812C4BB3F90E20B3F910009989218182
:104AD00002EB4202E0805200B3F91C00C4F802204D
:104AE000B3F91A20198B218202EB4202E0815200B5
:104AF000B3F92800C4F80A20B3F92620998C218341
:104B000002EB4202E0825200B3F93400C4F81220F2
:104B1000B3F93220198E218402EB4202E083520065
:104B2000B3F94000C4F81A20B3F93E20998F2185CB
:104B300002EB42025200E084C4F822202A23002023
:104B400012E70548FDF74CFC00EB400040002060F8
:104B5000B2E6084666E600BF040000208403002099
:104B60000C0400201404002048030020F002002060
:104B70001804002040020020B0F58C7F61D041F67F
:104B80005833984253D1B64B186804F02FFA8DED84
:104B9000010A019B23608FE6B24B93F8480070E650
:104BA000B148FDF7D3FB6CE62388023305209BB2A6
:104BB000DAE604232380AC48FDF738FC0346638023
:104BC000A9481293FDF732FC2388C0F30F4002334B
:104BD000A0809BB20020C7E6A348FDF7F1FB00EBE5
:104BE00040004300C4F802309F48FDF7F1FB062364
:104BF000E080238000200823B6E61FFA8CFC3C22CC
:104C0000BCF13D0F228000F28E803E230820ABE6EF
:104C10001FFA8CFC0E22BCF10F0F228076D81023D5
:104C20000820A1E6914BD3F80031236044E605202B
:104C300043E68D48FDF7D8FB00EB400040002060C4
:104C40003AE68A4BD3F8FC30236035E6B0F5496F7D
:104C500000F0868100F28F80B0F5416F00F079811D
:104C6000B0F5456F40F09580804804F041FE20800B
:104C700056E6B0F5116F00F0418100F2C380B0F547
:104C8000096F00F03481B0F50D6F40F082807648F6
:104C9000FDF7C2FB208043E6B0F5447F00F01881A9
:104CA00000F2A080B0F5247F00F00D81B0F5347FD4
:104CB0006FD16F4804F008F9208031E641F61013F7
:104CC000984200F0798100F2AB8041F25063984243
:104CD00000F06D8141F6D00398425AD1654804F046
:104CE00001F920801CE62A2308203DE60E23082037
:104CF0003AE6614A1268506814689168D268DA60CE
:104D000058601C609960002012232DE65B4A1268EF
:104D10001068516894689C601860596092899A8103
:104D20000020102320E6564A126802F1300E146863
:104D300050689168D2F80CC0C3F80CC010327245AC
:104D40001C605860996003F11003F0D1106851683D
:104D500092689A601860596000203E2304E6B0F51E
:104D6000356F00F00481B0F5396F12D13F4804F07F
:104D70002BFB2080D4E541F25043984200F08A801A
:104D800007D8B0F5656F3FF4CBADB0F5696F3FF470
:104D9000C7AD0520C5E541F29053984200F08980E7
:104DA00041F2D0539842F4D1364804F093F8208071
:104DB000B6E5B0F5C87F4DD0B0F5E87FE9D1314810
:104DC00004F082F82080ABE5B0F5FA6F00F0858042
:104DD000B0F5016FDDD12448FDF70AFBC0F30F43A6
:104DE00023809DE5B0F5547F00F08F80B0F5647F9F
:104DF000CFD11E4813AA12A904F090FDBDF84C3083
:104E000023808DE5B0F5156F00F0DB80B0F5196FEC
:104E1000BFD11548FDF70AFBC0F30F4323807FE5A0
:104E200041F6D0239842B4D1174B184AB3F9083051
:104E300003EB830303EB83039B0082FB03121A44FF
:104E4000DB17C3EBA23323806AE5114804F000F8B6
:104E5000208065E50B4804F033F8208060E500BF52
:104E60003000002040020020040000201801002033
:104E7000F00200204C010020080400201004002053
:104E80000C0400201C030020F4000020030001801B
:104E9000A80300204D4804F01DF8208040E54C4850
:104EA00004F020F820803BE5484804F037F82080E3
:104EB00036E5474804F036F8208031E5454804F0EF
:104EC00011F820802CE5424803F0FAFF208027E506
:104ED0003F4804F023F8208022E53F48FDF788FA98
:104EE00020801DE53B4804F019F8208018E53A4879
:104EF000FDF788FAC0F30F43238011E53648FDF72C
:104F00008BFAC0F30F4323800AE5344813AA12A991
:104F100004F004FDBDF84830238001E52B4803F080
:104F2000E1FF2080FCE42C48FDF78AFAC0F30F4330
:104F30002380F5E42A4803F0C7FF2080F0E42648E8
:104F4000FDF77EFA2080EBE42348FDF75BFA208032
:104F5000E6E4224804F0D0FCC0F30F432380DFE4F2
:104F60001E4804F0C5FCC0F30F432380D8E41B4B5C
:104F7000B3F904302380D3E4144803F0A1FF208068
:104F8000CEE4124803F0CEFF2080C9E41248FDF7BA
:104F900061FAC0F30F432380C2E4114803F090FF8D
:104FA0002080BDE40D4804F0A7FC2080B8E4094847
:104FB00003F0B8FF2080B3E4094803F08BFF2080A2
:104FC000AEE40548FDF732FA2080A9E4480300204A
:104FD000F00200201C030020040000201801002023
:104FE0004C0100200120704708B505F0A5FB1623F1
:104FF00003604FF0FF3008BD08B505F09DFB162398
:105000000360FEE770B5161E07DD0C468D19AFF381
:10501000008004F8010BA542F9D1304670BD00BFF5
:1050200070B5161E07DD0C468D1914F8010BAFF391
:105030000080A542F9D1304670BD00BF4FF0FF306F
:10504000704700BF4FF400534B600020704700BF13
:1050500001207047002070470C490D4A0B6810B5BD
:105060000C4C121B2BB11844904207D8086018460C
:1050700010BD094B0B6018449042F7D905F05CFB5A
:105080000C2303604FF0FF33184610BD841C002032
:105090000080002000040000E01D002030B4026801
:1050A00002F1080151E8003F43F0010341E80034F8
:1050B000002CF7D1C168194D43686C5C234402F1A0
:1050C000240199604023136202F1080151E8003F76
:1050D00043F0400341E80034002CF7D14023136231
:1050E00052E8003F43F0400342E800310029F7D185
:1050F00002F1080151E8003F43F0800341E8003429
:10510000002CF7D101698368695C0B4402F1280027
:105110004021986030BC1162704700BFACD40008D9
:105120000369806810B40B4CE35CC458E40700EBDF
:10513000030C0CD4CCF80C10DCF804106FF30F0146
:105140000A43CCF80420C25842F00102C2505DF874
:10515000044B7047ACD4000810B4C3680C4C4068D2
:10516000E35CC45800EB030C24F00104C450CCF8F9
:105170000C10DCF804105DF8044B6FF30F011143C1
:10518000CCF80410C25842F00102C250704700BF70
:10519000ACD4000802681023136252E8003F43F0C9
:1051A000100342E800310029F7D17047034AD2F8D2
:1051B000883043F47003C2F88830704700ED00E097
:1051C00038B50F4B1B680BB9012038BD0D494FF4A2
:1051D0007A720546B2FBF3F30868B0FBF3F001F016
:1051E00015F804460028EFD10F2DEDD802462946C8
:1051F0004FF0FF3000F0AEFF034B20461D6038BD7E
:10520000F4040020F0040020F80400200A4A136887
:1052100043F4807310B50320136000F089FF04206D
:10522000FFF7CEFF10B10124204610BD0446FEF763
:1052300095FC204610BD00BF00200240034A0449EF
:10524000136809680B441360704700BF881C002076
:10525000F4040020014B1868704700BF881C002030
:1052600030B583B000230193002800F0AA80C56DFB
:105270000446002D00F0AA80226893689D0005D5A1
:10528000936823F0204323F03F0393609368D80092
:1052900019D4684B68481B6891689B09A0FB0303FD
:1052A00021F010419B0921F03F0101335B0041F0E7
:1052B000805191600193019B2BB1019B013B0193B4
:1052C000019B002BF9D19368D9007DD4E36D43F0A5
:1052D0001003E365236E012003432366936813F0F4
:1052E000040FE36D69D1DB0667D4E36D23F48173AA
:1052F00043F00203E3659368DD0709D44FF0A04350
:105300009B6813F0010F4D4B9B6801D1D9077AD5EB
:10531000E568E36B94F824102B43A5682B43657F65
:10532000012943EA453343EA014355D0E16A21B1FB
:10533000256B01F4787129430B43D5684049294016
:105340001943D1601369616B23F040630B43136110
:1053500093681B0722D4D16894F83830257F21F454
:1053600080415B0021F0020143EA85330B43216950
:10537000D360136900293CD043F480331361D2F821
:10538000C0306FF30D030B43C2F8C03094F84030C7
:10539000012B40D0136923F0010313616369012BD2
:1053A0001FD0136B23F00F031363E36D23F003038C
:1053B00043F00103E36503B030BDE36D43F0100338
:1053C000E365012003B030BD002087E7FEF7E8FB6E
:1053D000256684F858504FE7A16A013943EA4143F2
:1053E000A4E7116B236A21F00F01013B0B43136308
:1053F000DBE723F480331361D2F8C0306FF30D0381
:10540000C2F8C030C2E70F4965688B6823F47C138B
:105410002B438B607CE71169636CA56C6FF38A0189
:105420002B430B43E16C0B43216D0B4343F0010312
:105430001361B3E7F0040020632D3E050001005026
:105440000740F0FF000300502DE9F04190F858208C
:1054500082B00346012A4FF00000019000F02D8138
:105460001A68012083F858009468640755D4486886
:105470004FEA901E00F01F0C0EF00C0E086802F1AF
:105480003004C0F3846054F80E501F2600FA0CF06C
:1054900006FA0CFC25EA0C0C40EA0C0044F80E005D
:1054A0009068470743D5906808689468E50712D468
:1054B000CE68B04CD2F8B05006F01807FC40C0F3EC
:1054C0001207044025EA07052C43C2F8B040AA4C55
:1054D000A64200F0A280A94908421CD0A84CA94DC0
:1054E000A168A84201F0E07674D0A74DA84271D01F
:1054F000A64DA84200F0E580A54DA8420BD1490277
:1055000009D4A4498A4206D0A26822F0E07232434C
:1055100042F48002A260002003E0DA6D42F0200233
:10552000DA65002283F8582002B0BDE8F081946863
:1055300008682607B9D48D68C0F304560724C00D47
:10554000B440B5F1004F00F004006FEA040400F02D
:10555000078102F11407B5403E5834402C433C50BB
:10556000506920F000405061D1E904640868D568B2
:10557000042E074600F0C880C5F3C1056D0000F099
:10558000F84704FA05F002F16004834D54F826C090
:105590000CEA05053D43284340F0004044F826004E
:1055A0000D698E6954F8250020F08070304344F86E
:1055B00025000E690D7F54F82600A5F10105B5FA06
:1055C00085F56D0920F0007040EA456044F826003A
:1055D00008686AE70C029ED4B2F1A04F9BD16849DB
:1055E0006E488A6822F0E072324342F400028A6018
:1055F00002686B499209A1FB02129209013202EB87
:10560000420292000192019A002A84D0019A013A42
:105610000192019A002AF9D17DE7002F60D090FA1B
:10562000A0F4002C00F0BE80B4FA84F4013404F03D
:105630001F04092C40F2B68090FAA0F4002C00F070
:105640005781B4FA84F40134A40604F0F84490FAC3
:10565000A0F5002D00F05681B5FA85F5013505F06D
:105660001F05012606FA05F52C4390FAA0F0002844
:1056700000F04681B0FA80F0451C05F01F050320BC
:105680006FF01D0610FB0560000540F00070204320
:10569000C50D8C6805F0040502F11406C0F3045032
:1056A00004FA00F74FF0070C74590CFA00F024EAE2
:1056B00000003843705108680DE7022002B0BDE8D1
:1056C000F081C8013FF527AF32498A423FF423AF4A
:1056D000A26822F0E072324342F08072A2601AE7C0
:1056E000800E013000F01F050124800600F0F84014
:1056F000AC40092D44EA000405EB450077D91E387B
:10570000000540F00070C2E7146E146EC0F312057D
:10571000C4F38464002D6CD1C0F38460844200F033
:10572000A080546E556E02F16004C5F3846502F1E9
:10573000640E854200F0C080A568A56804F1080CDD
:10574000C5F38465854200F0A180E568E56804F151
:105750000C06C5F38464A04200F0C4803846A4E679
:1057600002F1140635582C403450506940F0004086
:105770005061F9E6FFFF070000007F40000008804D
:1057800000030050000021C31000C090000052C769
:10579000000084CB0001005000F0FF03F004002063
:1057A000632D3E0590FAA0F4002C00F0B780B4FA07
:1057B00084F40134A40604F0F84490FAA0F5002D16
:1057C00000F0AA80B5FA85F5013505F01F05012620
:1057D00006FA05F52C4390FAA0F0002800F0998015
:1057E000B0FA80F0013000F01F0000EB400000052F
:1057F0004DE790FAA0F51DB1B5FA85F5AC4230D071
:10580000546E556E02F16004C5F3846502F1640EB6
:1058100097FAA7F604F1080CE046002E74D0B6FA09
:1058200086F6AE424AD0DCF80050DCF80050C5F3F2
:10583000846597FAA7FE04F10C06B046BEF1000F8E
:1058400059D0BEFA8EFEAE4522D034683468C4F317
:10585000846497FAA7F5002D3FF427AEB5FA85F0DA
:1058600079E7106E144620F0004044F8600F0F688E
:10587000506E556EC7F3120602F1640EC5F38465CF
:105880003846002EC4D1C7F3846052E704F10C08F7
:10589000DCF8000020F00040CCF800000F68E06861
:1058A000E468C7F312054646C4F384643846002D05
:1058B000CFD1C7F384604EE704F10808DEF800009A
:1058C00020F00040CEF800000F68A068A568C7F37C
:1058D0001206C446C5F384653846002EA9D1C7F325
:1058E00084602FE7306820F0004030600868DCE515
:1058F0004FF08064ABE6E568E468C4F38464A8E72D
:105900000848C4E60225AFE6A568A568C5F3846526
:105910008FE74FF44010BAE602255BE74FF0806452
:105920004BE700BF000050FE38B503689A68950742
:1059300002D59B68002038BD9A68D407FAD59A68CA
:1059400002F00D02012A044609D0E36D43F0100372
:10595000E365236E43F001032366012038BD9A6896
:1059600022F0004222F03F02032142F002029A603C
:105970001960FFF76FFC23689B68D907054603D4BD
:10598000D8E79B68DB07D5D5FFF764FC401B0228EE
:105990002368F6D99A68D207F3D5D6E730B590F8E0
:1059A000583083B00022012B01923FD0012380F8B0
:1059B000583004460D46FFF7B7FFE36DE8B923F40E
:1059C000885323F00203226843F00203E3659368DF
:1059D00023F0404305F0804123F03F030B4343F0A5
:1059E0000043936093681349002B0EDBE36D23F0B3
:1059F000030343F00103E36502E043F01003E365B2
:105A0000002384F8583003B030BD019B013301936B
:105A1000019B8B42E6D9E36D23F01203002243F091
:105A20001003E36584F858200120ECE7022003B05E
:105A300030BD00BF01DE04002DE9F04390F858307E
:105A400083B00246012B4FF00000019000F07581F9
:105A50000123556982F85830D1E900401368002DC0
:105A600072D00D6A012D6FD0976E00F01F00C4F345
:105A700084668640002F40F01A81886A013D002824
:105A800000F01E82CF6A00F07C0028433843304388
:105A9000C2E919059868000710D491F8260091F81A
:105AA00025504005002D40F0F780DD6891F8246016
:105AB00025F4401540EA06502843D860986810F055
:105AC000040057D0986800209D68EE0714D4CF6872
:105AD000A34DD3F8B06007F0180C25FA0CF5C4F309
